{
  "_format": "hh-sol-artifact-1",
  "contractName": "ChessAccount",
  "sourceName": "contracts/ChessAccount.sol",
  "abi": [
    {
      "anonymous": false,
      "inputs": [
        {
          "indexed": true,
          "internalType": "address",
          "name": "owner",
          "type": "address"
        },
        {
          "indexed": false,
          "internalType": "uint256",
          "name": "accountId",
          "type": "uint256"
        },
        {
          "indexed": false,
          "internalType": "uint256",
          "name": "timestamp",
          "type": "uint256"
        }
      ],
      "name": "AccountCreated",
      "type": "event"
    },
    {
      "inputs": [
        {
          "internalType": "uint256",
          "name": "",
          "type": "uint256"
        }
      ],
      "name": "accounts",
      "outputs": [
        {
          "internalType": "address",
          "name": "owner",
          "type": "address"
        },
        {
          "internalType": "string",
          "name": "userName",
          "type": "string"
        },
        {
          "internalType": "uint256",
          "name": "balance",
          "type": "uint256"
        }
      ],
      "stateMutability": "view",
      "type": "function"
    },
    {
      "inputs": [
        {
          "internalType": "string",
          "name": "userName",
          "type": "string"
        }
      ],
      "name": "createAccount",
      "outputs": [],
      "stateMutability": "nonpayable",
      "type": "function"
    },
    {
      "inputs": [
        {
          "internalType": "uint256",
          "name": "accountId",
          "type": "uint256"
        }
      ],
      "name": "getAccountInfo",
      "outputs": [
        {
          "internalType": "string",
          "name": "userName",
          "type": "string"
        },
        {
          "internalType": "uint256",
          "name": "balance",
          "type": "uint256"
        }
      ],
      "stateMutability": "view",
      "type": "function"
    },
    {
      "inputs": [],
      "name": "getAccounts",
      "outputs": [
        {
          "internalType": "uint256[]",
          "name": "",
          "type": "uint256[]"
        }
      ],
      "stateMutability": "view",
      "type": "function"
    },
    {
      "inputs": [
        {
          "internalType": "address",
          "name": "",
          "type": "address"
        }
      ],
      "name": "members",
      "outputs": [
        {
          "internalType": "bool",
          "name": "",
          "type": "bool"
        }
      ],
      "stateMutability": "view",
      "type": "function"
    },
    {
      "inputs": [
        {
          "internalType": "address",
          "name": "",
          "type": "address"
        },
        {
          "internalType": "uint256",
          "name": "",
          "type": "uint256"
        }
      ],
      "name": "userAccounts",
      "outputs": [
        {
          "internalType": "uint256",
          "name": "",
          "type": "uint256"
        }
      ],
      "stateMutability": "view",
      "type": "function"
    }
  ],
  "bytecode": "0x6080604052600160035534801561001557600080fd5b50610f69806100256000396000f3fe608060405234801561001057600080fd5b50600436106100625760003560e01c806308ae4b0c14610067578063298daf5b146100975780633b561afc146100b357806383532d68146100e45780638a48ac0314610114578063f2a40db814610132575b600080fd5b610081600480360381019061007c91906106ae565b610164565b60405161008e91906106f6565b60405180910390f35b6100b160048036038101906100ac9190610857565b610184565b005b6100cd60048036038101906100c891906108d6565b6103ec565b6040516100db929190610991565b60405180910390f35b6100fe60048036038101906100f991906109c1565b6104a4565b60405161010b9190610a01565b60405180910390f35b61011c6104d5565b6040516101299190610ada565b60405180910390f35b61014c600480360381019061014791906108d6565b61056a565b60405161015b93929190610b0b565b60405180910390f35b60026020528060005260406000206000915054906101000a900460ff1681565b600260003373ffffffffffffffffffffffffffffffffffffffff1673ffffffffffffffffffffffffffffffffffffffff16815260200190815260200160002060009054906101000a900460ff1615610211576040517f08c379a000000000000000000000000000000000000000000000000000000000815260040161020890610b95565b60405180910390fd5b60006003600081548092919061022690610be4565b91905055905060405180606001604052803373ffffffffffffffffffffffffffffffffffffffff168152602001838152602001600081525060008083815260200190815260200160002060008201518160000160006101000a81548173ffffffffffffffffffffffffffffffffffffffff021916908373ffffffffffffffffffffffffffffffffffffffff16021790555060208201518160010190816102cc9190610e38565b5060408201518160020155905050600160003373ffffffffffffffffffffffffffffffffffffffff1673ffffffffffffffffffffffffffffffffffffffff1681526020019081526020016000208190806001815401808255809150506001900390600052602060002001600090919091909150556001600260003373ffffffffffffffffffffffffffffffffffffffff1673ffffffffffffffffffffffffffffffffffffffff16815260200190815260200160002060006101000a81548160ff0219169083151502179055503373ffffffffffffffffffffffffffffffffffffffff167fade0dca7a3d60b93dc10533e5f97a0146b67c0be8ea413443630699b6618d0b982426040516103e0929190610f0a565b60405180910390a25050565b6060600080600080858152602001908152602001600020905080600101816002015481805461041a90610c5b565b80601f016020809104026020016040519081016040528092919081815260200182805461044690610c5b565b80156104935780601f1061046857610100808354040283529160200191610493565b820191906000526020600020905b81548152906001019060200180831161047657829003601f168201915b505050505091509250925050915091565b600160205281600052604060002081815481106104c057600080fd5b90600052602060002001600091509150505481565b6060600160003373ffffffffffffffffffffffffffffffffffffffff1673ffffffffffffffffffffffffffffffffffffffff16815260200190815260200160002080548060200260200160405190810160405280929190818152602001828054801561056057602002820191906000526020600020905b81548152602001906001019080831161054c575b5050505050905090565b60006020528060005260406000206000915090508060000160009054906101000a900473ffffffffffffffffffffffffffffffffffffffff16908060010180546105b390610c5b565b80601f01602080910402602001604051908101604052809291908181526020018280546105df90610c5b565b801561062c5780601f106106015761010080835404028352916020019161062c565b820191906000526020600020905b81548152906001019060200180831161060f57829003601f168201915b5050505050908060020154905083565b6000604051905090565b600080fd5b600080fd5b600073ffffffffffffffffffffffffffffffffffffffff82169050919050565b600061067b82610650565b9050919050565b61068b81610670565b811461069657600080fd5b50565b6000813590506106a881610682565b92915050565b6000602082840312156106c4576106c3610646565b5b60006106d284828501610699565b91505092915050565b60008115159050919050565b6106f0816106db565b82525050565b600060208201905061070b60008301846106e7565b92915050565b600080fd5b600080fd5b6000601f19601f8301169050919050565b7f4e487b7100000000000000000000000000000000000000000000000000000000600052604160045260246000fd5b6107648261071b565b810181811067ffffffffffffffff821117156107835761078261072c565b5b80604052505050565b600061079661063c565b90506107a2828261075b565b919050565b600067ffffffffffffffff8211156107c2576107c161072c565b5b6107cb8261071b565b9050602081019050919050565b82818337600083830152505050565b60006107fa6107f5846107a7565b61078c565b90508281526020810184848401111561081657610815610716565b5b6108218482856107d8565b509392505050565b600082601f83011261083e5761083d610711565b5b813561084e8482602086016107e7565b91505092915050565b60006020828403121561086d5761086c610646565b5b600082013567ffffffffffffffff81111561088b5761088a61064b565b5b61089784828501610829565b91505092915050565b6000819050919050565b6108b3816108a0565b81146108be57600080fd5b50565b6000813590506108d0816108aa565b92915050565b6000602082840312156108ec576108eb610646565b5b60006108fa848285016108c1565b91505092915050565b600081519050919050565b600082825260208201905092915050565b60005b8381101561093d578082015181840152602081019050610922565b60008484015250505050565b600061095482610903565b61095e818561090e565b935061096e81856020860161091f565b6109778161071b565b840191505092915050565b61098b816108a0565b82525050565b600060408201905081810360008301526109ab8185610949565b90506109ba6020830184610982565b9392505050565b600080604083850312156109d8576109d7610646565b5b60006109e685828601610699565b92505060206109f7858286016108c1565b9150509250929050565b6000602082019050610a166000830184610982565b92915050565b600081519050919050565b600082825260208201905092915050565b6000819050602082019050919050565b610a51816108a0565b82525050565b6000610a638383610a48565b60208301905092915050565b6000602082019050919050565b6000610a8782610a1c565b610a918185610a27565b9350610a9c83610a38565b8060005b83811015610acd578151610ab48882610a57565b9750610abf83610a6f565b925050600181019050610aa0565b5085935050505092915050565b60006020820190508181036000830152610af48184610a7c565b905092915050565b610b0581610670565b82525050565b6000606082019050610b206000830186610afc565b8181036020830152610b328185610949565b9050610b416040830184610982565b949350505050565b7f43616c6c657220616c72656164792068617320616e206163636f756e742e0000600082015250565b6000610b7f601e8361090e565b9150610b8a82610b49565b602082019050919050565b60006020820190508181036000830152610bae81610b72565b9050919050565b7f4e487b7100000000000000000000000000000000000000000000000000000000600052601160045260246000fd5b6000610bef826108a0565b91507fffffffffffffffffffffffffffffffffffffffffffffffffffffffffffffffff8203610c2157610c20610bb5565b5b600182019050919050565b7f4e487b7100000000000000000000000000000000000000000000000000000000600052602260045260246000fd5b60006002820490506001821680610c7357607f821691505b602082108103610c8657610c85610c2c565b5b50919050565b60008190508160005260206000209050919050565b60006020601f8301049050919050565b600082821b905092915050565b600060088302610cee7fffffffffffffffffffffffffffffffffffffffffffffffffffffffffffffffff82610cb1565b610cf88683610cb1565b95508019841693508086168417925050509392505050565b6000819050919050565b6000610d35610d30610d2b846108a0565b610d10565b6108a0565b9050919050565b6000819050919050565b610d4f83610d1a565b610d63610d5b82610d3c565b848454610cbe565b825550505050565b600090565b610d78610d6b565b610d83818484610d46565b505050565b5b81811015610da757610d9c600082610d70565b600181019050610d89565b5050565b601f821115610dec57610dbd81610c8c565b610dc684610ca1565b81016020851015610dd5578190505b610de9610de185610ca1565b830182610d88565b50505b505050565b600082821c905092915050565b6000610e0f60001984600802610df1565b1980831691505092915050565b6000610e288383610dfe565b9150826002028217905092915050565b610e4182610903565b67ffffffffffffffff811115610e5a57610e5961072c565b5b610e648254610c5b565b610e6f828285610dab565b600060209050601f831160018114610ea25760008415610e90578287015190505b610e9a8582610e1c565b865550610f02565b601f198416610eb086610c8c565b60005b82811015610ed857848901518255600182019150602085019450602081019050610eb3565b86831015610ef55784890151610ef1601f891682610dfe565b8355505b6001600288020188555050505b505050505050565b6000604082019050610f1f6000830185610982565b610f2c6020830184610982565b939250505056fea26469706673582212201a5c15a59b8e7a132acf2c2ff401a245b527b61a07bbf758f20a81e4735ed10864736f6c63430008180033",
  "linkReferences": {},
  "deployedLinkReferences": {}
}