{
  "_format": "hh-sol-artifact-1",
  "contractName": "ChessAccount",
  "sourceName": "contracts/ChessAccount.sol",
  "abi": [
    {
      "anonymous": false,
      "inputs": [
        {
          "indexed": false,
          "internalType": "address",
          "name": "owner",
          "type": "address"
        },
        {
          "indexed": true,
          "internalType": "uint256",
          "name": "accountId",
          "type": "uint256"
        },
        {
          "indexed": false,
          "internalType": "uint256",
          "name": "timestamp",
          "type": "uint256"
        }
      ],
      "name": "AccountCreated",
      "type": "event"
    },
    {
      "anonymous": false,
      "inputs": [
        {
          "indexed": true,
          "internalType": "address",
          "name": "user",
          "type": "address"
        },
        {
          "indexed": false,
          "internalType": "uint256",
          "name": "value",
          "type": "uint256"
        },
        {
          "indexed": false,
          "internalType": "uint256",
          "name": "timestamp",
          "type": "uint256"
        }
      ],
      "name": "Deposit",
      "type": "event"
    },
    {
      "anonymous": false,
      "inputs": [
        {
          "indexed": false,
          "internalType": "uint256",
          "name": "gameId",
          "type": "uint256"
        },
        {
          "indexed": false,
          "internalType": "uint256",
          "name": "betAmount",
          "type": "uint256"
        },
        {
          "indexed": false,
          "internalType": "address",
          "name": "player1",
          "type": "address"
        },
        {
          "indexed": false,
          "internalType": "address",
          "name": "player2",
          "type": "address"
        },
        {
          "indexed": false,
          "internalType": "uint256",
          "name": "timestamp",
          "type": "uint256"
        }
      ],
      "name": "GameCreated",
      "type": "event"
    },
    {
      "anonymous": false,
      "inputs": [
        {
          "indexed": false,
          "internalType": "uint256",
          "name": "gameId",
          "type": "uint256"
        },
        {
          "indexed": false,
          "internalType": "address",
          "name": "winner",
          "type": "address"
        },
        {
          "indexed": false,
          "internalType": "uint256",
          "name": "timestamp",
          "type": "uint256"
        }
      ],
      "name": "GameResult",
      "type": "event"
    },
    {
      "inputs": [
        {
          "internalType": "uint256",
          "name": "",
          "type": "uint256"
        },
        {
          "internalType": "uint256",
          "name": "",
          "type": "uint256"
        }
      ],
      "name": "accountGames",
      "outputs": [
        {
          "internalType": "uint256",
          "name": "gameId",
          "type": "uint256"
        },
        {
          "internalType": "address",
          "name": "player1",
          "type": "address"
        },
        {
          "internalType": "address",
          "name": "player2",
          "type": "address"
        },
        {
          "internalType": "uint256",
          "name": "betAmount",
          "type": "uint256"
        },
        {
          "internalType": "address",
          "name": "winner",
          "type": "address"
        },
        {
          "internalType": "uint256",
          "name": "timestamp",
          "type": "uint256"
        }
      ],
      "stateMutability": "view",
      "type": "function"
    },
    {
      "inputs": [
        {
          "internalType": "uint256",
          "name": "",
          "type": "uint256"
        }
      ],
      "name": "accounts",
      "outputs": [
        {
          "internalType": "address",
          "name": "owner",
          "type": "address"
        },
        {
          "internalType": "uint256",
          "name": "balance",
          "type": "uint256"
        }
      ],
      "stateMutability": "view",
      "type": "function"
    },
    {
      "inputs": [
        {
          "internalType": "uint256",
          "name": "accountId",
          "type": "uint256"
        },
        {
          "internalType": "uint256",
          "name": "amount",
          "type": "uint256"
        }
      ],
      "name": "approveBet",
      "outputs": [],
      "stateMutability": "nonpayable",
      "type": "function"
    },
    {
      "inputs": [
        {
          "internalType": "uint256",
          "name": "accountId",
          "type": "uint256"
        },
        {
          "internalType": "uint256",
          "name": "amount",
          "type": "uint256"
        }
      ],
      "name": "bet",
      "outputs": [],
      "stateMutability": "nonpayable",
      "type": "function"
    },
    {
      "inputs": [
        {
          "internalType": "address",
          "name": "newOwner",
          "type": "address"
        }
      ],
      "name": "createAccount",
      "outputs": [],
      "stateMutability": "nonpayable",
      "type": "function"
    },
    {
      "inputs": [
        {
          "internalType": "uint256",
          "name": "accountId",
          "type": "uint256"
        }
      ],
      "name": "deposit",
      "outputs": [],
      "stateMutability": "payable",
      "type": "function"
    },
    {
      "inputs": [],
      "name": "getAccounts",
      "outputs": [
        {
          "components": [
            {
              "internalType": "address",
              "name": "owner",
              "type": "address"
            },
            {
              "internalType": "uint256",
              "name": "balance",
              "type": "uint256"
            }
          ],
          "internalType": "struct ChessAccount.Account[]",
          "name": "",
          "type": "tuple[]"
        }
      ],
      "stateMutability": "view",
      "type": "function"
    },
    {
      "inputs": [
        {
          "internalType": "uint256",
          "name": "accountId",
          "type": "uint256"
        }
      ],
      "name": "getBalance",
      "outputs": [
        {
          "internalType": "uint256",
          "name": "",
          "type": "uint256"
        }
      ],
      "stateMutability": "view",
      "type": "function"
    },
    {
      "inputs": [
        {
          "internalType": "uint256",
          "name": "accountId",
          "type": "uint256"
        }
      ],
      "name": "getPreviousGames",
      "outputs": [
        {
          "components": [
            {
              "internalType": "uint256",
              "name": "gameId",
              "type": "uint256"
            },
            {
              "internalType": "address",
              "name": "player1",
              "type": "address"
            },
            {
              "internalType": "address",
              "name": "player2",
              "type": "address"
            },
            {
              "internalType": "uint256",
              "name": "betAmount",
              "type": "uint256"
            },
            {
              "internalType": "address",
              "name": "winner",
              "type": "address"
            },
            {
              "internalType": "uint256",
              "name": "timestamp",
              "type": "uint256"
            }
          ],
          "internalType": "struct ChessAccount.Game[]",
          "name": "",
          "type": "tuple[]"
        }
      ],
      "stateMutability": "view",
      "type": "function"
    }
  ],
  "bytecode": "0x60806040526001600355600160045534801561001a57600080fd5b50610eea8061002a6000396000f3fe6080604052600436106100865760003560e01c806395423ada1161005957806395423ada1461015e5780639859387b1461019b578063b6b55f25146101c4578063d143a0d8146101e0578063f2a40db81461020957610086565b80631e0104391461008b5780633b013693146100c85780636ffcc7191461010a5780638a48ac0314610133575b600080fd5b34801561009757600080fd5b506100b260048036038101906100ad91906108ac565b610247565b6040516100bf91906108e8565b60405180910390f35b3480156100d457600080fd5b506100ef60048036038101906100ea9190610903565b610266565b60405161010196959493929190610984565b60405180910390f35b34801561011657600080fd5b50610131600480360381019061012c9190610903565b61031f565b005b34801561013f57600080fd5b50610148610323565b6040516101559190610ae1565b60405180910390f35b34801561016a57600080fd5b50610185600480360381019061018091906108ac565b610458565b6040516101929190610c2d565b60405180910390f35b3480156101a757600080fd5b506101c260048036038101906101bd9190610c7b565b6105ea565b005b6101de60048036038101906101d991906108ac565b6106d5565b005b3480156101ec57600080fd5b5061020760048036038101906102029190610903565b6107f9565b005b34801561021557600080fd5b50610230600480360381019061022b91906108ac565b6107fd565b60405161023e929190610ca8565b60405180910390f35b6000806000838152602001908152602001600020600101549050919050565b6001602052816000526040600020818154811061028257600080fd5b9060005260206000209060060201600091509150508060000154908060010160009054906101000a900473ffffffffffffffffffffffffffffffffffffffff16908060020160009054906101000a900473ffffffffffffffffffffffffffffffffffffffff16908060030154908060040160009054906101000a900473ffffffffffffffffffffffffffffffffffffffff16908060050154905086565b5050565b6060600060016003546103369190610d00565b67ffffffffffffffff81111561034f5761034e610d34565b5b60405190808252806020026020018201604052801561038857816020015b610375610841565b81526020019060019003908161036d5790505b5090506000600190505b600354811015610450576000808281526020019081526020016000206040518060400160405290816000820160009054906101000a900473ffffffffffffffffffffffffffffffffffffffff1673ffffffffffffffffffffffffffffffffffffffff1673ffffffffffffffffffffffffffffffffffffffff168152602001600182015481525050826001836104279190610d00565b8151811061043857610437610d63565b5b60200260200101819052508080600101915050610392565b508091505090565b606060016000838152602001908152602001600020805480602002602001604051908101604052809291908181526020016000905b828210156105df57838290600052602060002090600602016040518060c0016040529081600082015481526020016001820160009054906101000a900473ffffffffffffffffffffffffffffffffffffffff1673ffffffffffffffffffffffffffffffffffffffff1673ffffffffffffffffffffffffffffffffffffffff1681526020016002820160009054906101000a900473ffffffffffffffffffffffffffffffffffffffff1673ffffffffffffffffffffffffffffffffffffffff1673ffffffffffffffffffffffffffffffffffffffff168152602001600382015481526020016004820160009054906101000a900473ffffffffffffffffffffffffffffffffffffffff1673ffffffffffffffffffffffffffffffffffffffff1673ffffffffffffffffffffffffffffffffffffffff1681526020016005820154815250508152602001906001019061048d565b505050509050919050565b6000600360008154809291906105ff90610d92565b91905055905060405180604001604052808373ffffffffffffffffffffffffffffffffffffffff168152602001600081525060008083815260200190815260200160002060008201518160000160006101000a81548173ffffffffffffffffffffffffffffffffffffffff021916908373ffffffffffffffffffffffffffffffffffffffff16021790555060208201518160010155905050807fade0dca7a3d60b93dc10533e5f97a0146b67c0be8ea413443630699b6618d0b933426040516106c9929190610ca8565b60405180910390a25050565b803373ffffffffffffffffffffffffffffffffffffffff1660008083815260200190815260200160002060000160009054906101000a900473ffffffffffffffffffffffffffffffffffffffff1673ffffffffffffffffffffffffffffffffffffffff1614610779576040517f08c379a000000000000000000000000000000000000000000000000000000000815260040161077090610e37565b60405180910390fd5b34600080848152602001908152602001600020600101600082825461079e9190610e57565b925050819055503373ffffffffffffffffffffffffffffffffffffffff167f90890809c654f11d6e72a28fa60149770a0d11ec6c92319d6ceb2bb0a4ea1a1534426040516107ed929190610e8b565b60405180910390a25050565b5050565b60006020528060005260406000206000915090508060000160009054906101000a900473ffffffffffffffffffffffffffffffffffffffff16908060010154905082565b6040518060400160405280600073ffffffffffffffffffffffffffffffffffffffff168152602001600081525090565b600080fd5b6000819050919050565b61088981610876565b811461089457600080fd5b50565b6000813590506108a681610880565b92915050565b6000602082840312156108c2576108c1610871565b5b60006108d084828501610897565b91505092915050565b6108e281610876565b82525050565b60006020820190506108fd60008301846108d9565b92915050565b6000806040838503121561091a57610919610871565b5b600061092885828601610897565b925050602061093985828601610897565b9150509250929050565b600073ffffffffffffffffffffffffffffffffffffffff82169050919050565b600061096e82610943565b9050919050565b61097e81610963565b82525050565b600060c08201905061099960008301896108d9565b6109a66020830188610975565b6109b36040830187610975565b6109c060608301866108d9565b6109cd6080830185610975565b6109da60a08301846108d9565b979650505050505050565b600081519050919050565b600082825260208201905092915050565b6000819050602082019050919050565b610a1a81610963565b82525050565b610a2981610876565b82525050565b604082016000820151610a456000850182610a11565b506020820151610a586020850182610a20565b50505050565b6000610a6a8383610a2f565b60408301905092915050565b6000602082019050919050565b6000610a8e826109e5565b610a9881856109f0565b9350610aa383610a01565b8060005b83811015610ad4578151610abb8882610a5e565b9750610ac683610a76565b925050600181019050610aa7565b5085935050505092915050565b60006020820190508181036000830152610afb8184610a83565b905092915050565b600081519050919050565b600082825260208201905092915050565b6000819050602082019050919050565b60c082016000820151610b456000850182610a20565b506020820151610b586020850182610a11565b506040820151610b6b6040850182610a11565b506060820151610b7e6060850182610a20565b506080820151610b916080850182610a11565b5060a0820151610ba460a0850182610a20565b50505050565b6000610bb68383610b2f565b60c08301905092915050565b6000602082019050919050565b6000610bda82610b03565b610be48185610b0e565b9350610bef83610b1f565b8060005b83811015610c20578151610c078882610baa565b9750610c1283610bc2565b925050600181019050610bf3565b5085935050505092915050565b60006020820190508181036000830152610c478184610bcf565b905092915050565b610c5881610963565b8114610c6357600080fd5b50565b600081359050610c7581610c4f565b92915050565b600060208284031215610c9157610c90610871565b5b6000610c9f84828501610c66565b91505092915050565b6000604082019050610cbd6000830185610975565b610cca60208301846108d9565b9392505050565b7f4e487b7100000000000000000000000000000000000000000000000000000000600052601160045260246000fd5b6000610d0b82610876565b9150610d1683610876565b9250828203905081811115610d2e57610d2d610cd1565b5b92915050565b7f4e487b7100000000000000000000000000000000000000000000000000000000600052604160045260246000fd5b7f4e487b7100000000000000000000000000000000000000000000000000000000600052603260045260246000fd5b6000610d9d82610876565b91507fffffffffffffffffffffffffffffffffffffffffffffffffffffffffffffffff8203610dcf57610dce610cd1565b5b600182019050919050565b600082825260208201905092915050565b7f4e6f7420746865206163636f756e74206f776e65720000000000000000000000600082015250565b6000610e21601583610dda565b9150610e2c82610deb565b602082019050919050565b60006020820190508181036000830152610e5081610e14565b9050919050565b6000610e6282610876565b9150610e6d83610876565b9250828201905080821115610e8557610e84610cd1565b5b92915050565b6000604082019050610ea060008301856108d9565b610ead60208301846108d9565b939250505056fea2646970667358221220b781698aac9444447a7e9b15046aa9e259328369f9caed5c961a7fcd78967c5764736f6c63430008180033",
  "linkReferences": {},
  "deployedLinkReferences": {}
}